:100000000C944E000C9459020C943C010C949402F4
:100010000C9494020C9494020C9494020C94940208
:100020000C9494020C9494020C9494020C949402F8
:100030000C9494020C941F020C9494020C9494025D
:100040000C9494020C9494020C9494020C949402D8
:100050000C9494020C9494020C9494020C949402C8
:100060000C9494020C94940297019A019D01A001B2
:10007000A301A601A901AC01AF01B101BE01C101FB
:10008000C401C701CA01CD01D001D301D601D801F5
:1000900001000108000536010801208011241FBE5F
:1000A000CFEFD8E0DEBFCDBFE0E9F0E040E017C021
:1000B000B591A59135912591059107FD0CC09591BC
:1000C0008591EF01F92FE82F05900D92A217B30744
:1000D000D9F7FE0104C01D92A217B307E1F7EC396E
:1000E000F40731F70E9478000C948302F894FFCF54
:1000F00010921B0110921A0110921D0110921C0106
:100100008FEF84B987B980EF8AB98FE08BB98BE71D
:1001100091EE909385008093840085E08093810028
:100120001092800081E080936F008AE080936900E4
:100130008DB383608DBB7894499928C010921901C2
:100140001092180112C09C01220F331FF901E05FC9
:10015000FE4F11821082F901E85FFE4F118210827A
:100160000196909319018093180180911801909144
:100170001901843091053CF310921B0110921A0171
:1001800083EC99E00197F1F700C0000080911E0117
:1001900090911F0181309105D9F01CF4892B39F021
:1001A00049C08230910529F10397A1F143C060E075
:1001B00070E080911601909117010E948C0161E01E
:1001C00070E080910E0190910F010E948C0132C06D
:1001D00060E070E080911401909115010E948C0103
:1001E00061E070E080910C0190910D010E948C0102
:1001F00021C060E070E080911201909113010E9493
:100200008C0161E070E080910A0190910B010E94E5
:100210008C0110C060E070E080911001909111019C
:100220000E948C0161E070E08091080190910901C9
:100230000E948C01E0911E01F0911F01EE0FFF1F43
:10024000E050FF4F80818BB980911E0190911F017A
:10025000019683709078992324F401978C6F9F6F97
:10026000019690931F0180931E0187E893E1019707
:08027000F1F700C0000060CFAF
:100278001F920F920FB60F9211242F933F938F93D3
:100288009F93AF93BF93EF93FF9380911201909147
:10029800130189309105ECF0A0E1B1E02D913C917A
:1002A80011972F5F3F4F11963C932E93E8E0F1E0B2
:1002B800208131812F5F3F4F318320830997139627
:1002C8009C938E931297828193810997938382835B
:1002D8000CC001969093130180931201E8E0F1E0BD
:1002E8008281938101969383828387EA91E60197BD
:1002F800F1F700C00000FF91EF91BF91AF919F917E
:100308008F913F912F910F900FBE0F901F901895CE
:100318006115710521F58A30910508F5FC01EC5C41
:10032800FF4F0C948E0220EC28B919C029EF28B988
:1003380016C024E228B913C020E328B910C029E167
:1003480028B90DC022E128B90AC022E028B907C09F
:1003580028EF28B904C018B802C028E128B96130CC
:10036800710521F58A30910508F5FC01E25CFF4F23
:100378000C948E0280EC85B9089589EF85B90895AB
:1003880084E285B9089580E385B9089589E185B93E
:10039800089582E185B9089582E085B9089588EFC6
:0E03A80085B9089515B8089588E185B90895BE
:1003B600FC0180911A0190911B01892BA9F0828181
:1003C6009381892B61F480819181892B41F4868107
:1003D6009781892B21F484819581892B29F0868147
:1003E60097810197978386838681978199234CF419
:1003F6008481958101979583848389E090E0978332
:1004060086838481958199234CF482819381019717
:100416009383828385E090E09583848382819381B0
:1004260099234CF48081918101979183808389E09F
:0804360090E093838283089596
:10043E001F920F920FB60F9211242F933F934F934B
:10044E005F936F937F938F939F93AF93BF93EF932E
:10045E00FF9380911C0190911D01009719F0019757
:10046E0031F009C080E191E00E94DB0104C088E018
:10047E0091E00E94DB018BE791EE909385008093D3
:10048E008400FF91EF91BF91AF919F918F917F91DA
:10049E006F915F914F913F912F910F900FBE0F90E3
:0404AE001F901895EE
:1004B2001F920F920FB60F9211242F933F938F9397
:1004C2009F9381E090E090931B0180931A01209109
:1004D2001C0130911D01232B11F080E090E09093DC
:1004E2001D0180931C0187EA91E60197F1F700C094
:1004F20000009F918F913F912F910F900FBE0F900F
:040502001F90189599
:10050600EC010E9499020E949802CE010E949A0272
:06051600CE010E949602D6
:0C051C00EE0FFF1F0590F491E02D0994F4
:040528000C9400002F
:04052C000E947600B3
:0205300008952C
:0205320008952A
:02053400089528
:080536008000400020001000CD
:00000001FF
